:10059D006A3A25642D2D2D2D693A25642D2D2D2D8D
:1005AD0050323A25783D3D003D3D50303A25783D5D
:1005BD003D3D3D004348313D25356C6420282535B2
:1005CD00646D5629200D0A002A2A2A2A2A2A2A2A47
:1005DD002A2A2A2A2A2A2A2A2A2A2A2A2A2A2A2A6E
:1005ED002A2A2A2A2A2A2A2A2A2A2A2A2A2A2A2A5E
:1005FD002A2A2A2A2A2A2A2A2A2A2A2A2A2A2A2A4E
:10060D002A2A2A2A2A0A0D002A20C0B3CCC3FBB3FA
:10061D00C62020203A2025730D0A00535443383943
:10062D004335325F544D37373035CBABC2B74144CC
:10063D0043C4A3BFE9C0B3CC002A20C0B3CCB0E6FD
:10064D00B1BE2020203A2025730D0A00312E300036
:10065D002A20B7A2B2BCC8D5C6DA2020203A202560
:10066D00730D0A00323031342D30342D3230002AE2
:10067D00205151202020203A203132393537343461
:10068D00363330200D0A002A20456D61696C203A01
:10069D002061726D666C794071712E636F6D200DE6
:1006AD000A002A20436F7079726967687420777722
:1006BD00772E61726D666C792E636F6D20B0B2B856
:1006CD00BBC0B3B5E7D7D30D0A00233445566778C1
:1006DD00899AABBCCDDEEF3445566778899AABBCB1
:1006ED00CDDEEFF045566778899AABBCCDDEEFF0E5
:1006FD0001566778899AABBCCDDEEFF001126778B1
:10070D00899AABBCCDDEEFF001122378899AABBC90
:10071D00CDDEEFF001122334899AABBCCDDEEFF0C4
:10072D0001122334459AABBCCDDEEFF00112233418
:10073D004556ABBCCDDEEFF001122334455667BCF8
:10074D00CDDEEFF00112233445566778CDDEEFF0A4
:10075D00011223344556677889DEEFF001122334F8
:10076D0045566778899AEFF001122334455667781C
:10077D00899AABF00112233445566778899AABBC40
:10078D000112233445566778899AABBCCD122334B8
:10079D0045566778899AABBCCDDE01122334455698
:0A07AD006778899AABBCCDDEEFF04F
:090DC800120DF11209CE0207B769
:1007B700120C7B7F01120D147F01120BC1781DEE05
:1007C700F208EFF27F02120D147F02120BC1781F9D
:1007D700EEF208EFF2E47802F208F2E47800F208A9
:1007E700F2120DF87800E2FE08E2FF08E2FC08E2E8
:1007F700FD9006D775F00D120445EC75F00DA42594
:1008070083F583E5822FF582E5833EF583E493F54F
:100817008074A72DF58274073CF583E493FFF5A058
:100827007BFF7A05799D18E2FD08E27830CDF20862
:10083700EDF27800E2FD08E27832CDF208EDF20839
:10084700EFF21200887BFF7A0579B57800E2FE089F
:10085700E2FF08E2FC08E29006D775F00D120445A6
:10086700EC75F00DA42583F583E5822FF582E583EA
:100877003EF583E4937830F21200887F967E00126B
:100887000CF67F01120BC1781DEEF208EFF27F0222
:0A089700120BC1781FEEF208EFF219
:1008A100781DE2FE08E2FFE4FCFD7B887A13F9F88B
:1008B10012039AE47BFF7AFFF9F8120B7D7821EE9F
:1008C100F208EFF2781FE2FE08E2FFE4FCFD7B880C
:1008D1007A13F9F812039AE47BFF7AFFF9F8120B05
:1008E1007D7823EEF208EFF27BFF7A0579C1781D5E
:1008F100E2FE08E2FFE4FCFD78301204207821E2F8
:10090100FF08E27834CFF208EFF21200887FFA7E16
:0409110000120CF6CE
:100915007801E22401F218E23400F2C308E2940DF2
:1009250018E26480948050030207E87803E224010A
:10093500F218E23400F2C308E2941018E2648094DD
:080945008050030207E280FE6E
:1009CE007BFF7A0579D5120088783074FFF20874AF
:1009DE0006F2087428F27BFF7A06791512008878E1
:1009EE003074FFF2087406F2087459F27BFF7A062F
:1009FE007946120088783074FFF2087406F2087493
:100A0E0071F27BFF7A06795D1200887BFF7A067998
:100A1E007C1200887BFF7A0679941200887BFF7A1D
:0F0A2E000679AF1200887BFF7A0579D502008820
:010DF70022D9
:030DF100020D9957
:010DF80022D8
:100CF600EF1FAA0670011E4A6013E4FCFDC3ED94C3
:0D0D06004BEC940050EA0DBD00010C80F094
:010D130022BD
:03002300020DF9D2
:010DF90032C7
:080DD1008F993099FDC29922AF
:070DD9003098FDAF99C298AC
:010DE00022F0
:100CAC007804EBF208EAF208E9F2AF051DEF601ADE
:100CBC007804E2FB0808E2F92401F218E2FA3400A5
:0B0CCC00F2120381FF120DD180E02224
:100D9900759850758920758840758DFA758BFA7527
:070DA9008780C298C2992265
:100C4000544D373730355F576169744452445928E1
:100C50002920D0BEC6ACD3A6B4F0B3ACCAB1202E06
:100C60002E2E0D0A00D6D8D0C2CDACB2BD535049FD
:0B0C7000BDD3BFDACAB1D0F20D0A00FC
:100C7B007F0A7E00120CF6120D4C7F057E00120CC3
:100C8B00F6120D677F057E00120CF67F20120DE128
:100C9B007F08120DE17F01120D147F057E00020CFF
:010CAB00F652
:010DFA0022D6
:100D4C00D2917F017E00120CF6C2917F027E0012BE
:0B0D5C000CF6D2917F017E00020CF625
:100D6700C2907FFF1200037FFF1200037FFF120074
:090D7700037FFF120003D2902259
:10000300E4FEEF30E704D2928002C292C293EF255E
:0F001300E0FF120DFAD293120DFA0EEEB408E3CD
:0100220022BB
:100AF400780B120420780BE2FC08E2FD08E2FE0801
:100B0400E2FF780812040D780B120420780BE2FB44
:0A0B140008E2F908E2FA08E2CBF863
:100B1E00E4FFFEC293120DFAEF25E0FF3094010FB1
:0A0B2E00D293120DFA0EEEB408E99E
:010B3800229A
:080DE100C290120003D290221F
:100C02007807120420C2907807E2FC08E2FD08E2AD
:100C1200FE08E2FF78101203FA1200037807E2FCE2
:100C220008E2FD08E2FE08E2FF78081203FA120069
:0E0C3200037807080808E2FF120003D29022A0
:070DE900C290120B1ED29014
:010DF00022E0
:100D8000C290120B1EAD07ED7D00FC120B1EED2F65
:080D9000FDE43CD290FEAF052A
:010D98002238
:100B3900C290120B1EE4FCFDFE120AF4E4FCFDFE59
:100B4900EB2FFFEE3AFEED39FDEC38FC120AF4E426
:100B5900FCFDFEEB2FFFEE3AFEED39FDEC38FC789B
:100B69000B120420D290780BE2FC08E2FD08E2FEA9
:030B790008E2FF90
:010B7C002256
:03094D00120DE1A7
:10095000782912042C00000000E47F407E1FFDFC7B
:100960007829E2FB08E2F908E2FA08E2CBF8C312C0
:1009700003E9502230951F7829E2FC08E2FD08E2E5
:10098000FE08E22401FFE43EFEE43DFDE43CFC7889
:100990002912042080C3E47F407E1FFDFC7829E2F9
:1009A000FB08E2F908E2FA08E2CBF8C31203E940D7
:1009B0001C7BFF7A0C79401200887BFF7A0C7965EA
:0D09C000120088120D677F057E00120CF6F4
:0109CD002207
:100AAB00EF24F0601624F0601224C060151460125D
:100ABB0024F1600E14600B2471702D78147408F2FD
:100ACB00800578147418F2120DE17814E27810B4E2
:100ADB000808080808E2FF020DE1E2FC08E2FD0845
:080AEB00E2FE08E2FF120C021A
:010AF30022E0
:040A3D007815EFF247
:100A410024F0601624F0601224C060151460122492
:100A5100F1600E14600B2471700E78167408F28028
:100A61000E78167418F2800774FFFFFEFDFC2278E1
:100A710015E24408FF120DE108E2FBB41009120D62
:100A810080E4FCFD088012EBB40809120DE9E4FCD6
:100A9100FDFE8003120B3978171204207817E2FC4F
:090AA10008E2FD08E2FE08E2FF94
:010AAA002229
:100D14007825EFF2BF01047F1080087825E2B40241
:0C0D24000A7F11120DE17F4612094D22DA
:100D3000781BEFF2BF01047F108008781BE2B40239
:0C0D40000A7F11120DE17F8612094D227E
:100CD700781CEFF2BF01047F108008781CE2B40291
:0F0CE7000D7F11120DE17FC6120DE1120950228F
:040BC1007825EFF2B2
:100BC500E47827F208F27826F21209507825E2FD3A
:100BD500B401047F388006EDB402057F39120DE1BA
:100BE500120D807827EEF208EFF27826E204F2E2A1
:0C0BF500C3940240D47827E2FE08E2FF1F
:010C010022D0
:0C0DB000783CEFF2120DD1783CE2FF22FB
:030DF400020DD914
:03000000020DBC32
:0C0DBC00787FE4F6D8FD758121020DC897
:10038100BB010689828A83E0225002E722BBFE027A
:09039100E32289828A83E49322AD
:10039A00E88FF0A4CC8BF0A42CFCE98EF0A42CFC02
:1003AA008AF0EDA42CFCEA8EF0A4CDA8F08BF0A480
:1003BA002DCC3825F0FDE98FF0A42CCD35F0FCEBDF
:1003CA008EF0A4FEA9F0EB8FF0A4CFC5F02ECD39A4
:0F03DA00FEE43CFCEAA42DCE35F0FDE43CFC2211
:100B7D00C2D5E830E70FB2D5E4C39BFBE49AFAE4A3
:100B8D0099F9E498F8EC30E717B2D5120BB31204CB
:100B9D00CCE4C39BFBE49AFAE499F9E498F880035A
:100BAD001204CC30D50DE4C39FFFE49EFEE49DFD01
:040BBD00E49CFC2296
:1003E900EB9FF5F0EA9E42F0E99D42F0E89C45F06A
:0103F90022E1
:1003FA00E8600FECC313FCED13FDEE13FEEF13FFE1
:03040A00D8F12204
:10040D00E8600FEFC333FFEE33FEED33FDEC33FC4D
:03041D00D8F122F1
:0C042000ECF208EDF208EEF208EFF22218
:10042C00D083D082E493F208740193F2087402939F
:09043C00F208740393F2740473D6
:0C044500A42582F582E5F03583F58322C2
:10002600E5082430F8E2050822782D3007027830FA
:10003600E475F00112055E0203812000EB7F2ED2EB
:10004600008018EF540F2490D43440D4FF30040BB2
:10005600EF24BFB41A0050032461FFE509600215BE
:1000660009050CE50C7002050B30070D782DE475BB
:10007600F00112055EEF02047E020DB07403D20792
:100086008003E4C207F508782D12056EE4F509F53C
:100096000BF50CE50960077F2012006180F5750AF3
:1000A600FFC201C200C202C203C205C206C20812D2
:1000B600002FFF700D3007057F00120072AF0CAEE7
:1000C6000B22B4255FC2D5C20412002FFF24D0B480
:1000D6000A00501A75F00A780930D50508B6FF01EE
:1000E60006C6A426F620D5047002D20380D924CFF2
:1000F600B41A00EF5004C2E5D204020271D20180A4
:10010600C6D20080C0D20280BCD2D580BAD20580C9
:10011600B47F201200612002077401B5090040F186
:10012600120026FF120061020099D208D2068095BD
:10013600120026FB120026FA120026F94A4B700618
:1001460079427A037BFF20022EE509602A7E008E23
:100156008275830012045160060EEE650A70F0C2C5
:10016600D5EBC0E0EAC0E0E9C0E0EE1202B8D0E0AC
:10017600F9D0E0FAD0E0FB120381FF60AAEBC0E001
:10018600EAC0E0E9C0E0120061D0E02401F9D0E065
:100196003400FAD0E0FBE50A0460DCD50AD9808792
:1001A6007BFF7A0279B4D202809C791080027908AA
:1001B600C206C2088008D2D5790A8004790AC2D557
:1001C600E50A047002F50AE4FAFDFEFF120026FCB9
:1001D6007B08200113120026FD7B1030000A120056
:1001E60026FE120026FF7B20EC3382D592D55013D3
:1001F600C3E43000069FFFE49EFEE42001039DFD5C
:10020600E49CFCE4CBF8C201EC700CCFCECDCCE87C
:1002160024F8F870F38017C3EF33FFEE33FEED33A7
:10022600FDEC33FCEB33FB994002FB0FD8E9EB30D6
:100236000105F8D0E0C448B201C0E00AEC4D4E4FCB
:1002460078207B0070C2EAB50A0040BCC0E012020A
:10025600BAD0F0D0E0200104C4C0E0C4B201C0F0BE
:1002660012004AD0F0D5F0EB02009912057701365C
:100276005301B05801074C01034201B44F01BC447D
:1002860001BC49011C4301C25501A64601A6450110
:01029600A6C1
:1002970047036250010B2D010F2E01322B0113234F
:1002A700013020034B2A00CB480000012A3F3F3F83
:1002B70000790AA2D5200314300509B910020404F5
:1002C700B9080104A2D52006025001042002689251
:1002D70002B509005034C0E07F203003197F30A2F7
:1002E7000272067205500F120311C202C206C2053E
:1002F700C2087F30800F300503E9C0E0120061308B
:100307000503D0E0F9D0E0B509CC3005177F30B947
:10031700100C1200617F583004077F788003B908FA
:10032700031200613002057F2D0200617F20200843
:10033700F87F2B2006F322920280CF286E756C6C13
:100347002900D2011200263001F8C201780930D500
:100357000108F60200CB2D5043495812002624030A
:10036700B405004001E490035D93120052743A1201
:0A0377000052D2037509040201B020
:10045100BB010CE58229F582E5833AF583E0225060
:1004610006E92582F8E622BBFE06E92582F8E222AA
:0D047100E58229F582E5833AF583E49322C4
:10047E00BB010689828A83F0225002F722BBFE015D
:02048E00F32257
:1004900075F008758200EF2FFFEE33FECD33CDCC23
:1004A00033CCC58233C5829BED9AEC99E5829840A6
:1004B0000CF582EE9BFEED9AFDEC99FC0FD5F0D683
:1004C000E4CEFBE4CDFAE4CCF9A88222B800C1B9AD
:1004D0000059BA002DEC8BF084CFCECDFCE5F0CBEB
:1004E000F97818EF2FFFEE33FEED33FDEC33FCEB24
:1004F00033FB10D703994004EB99FB0FD8E5E4F9DF
:10050000FA227818EF2FFFEE33FEED33FDEC33FCCB
:10051000C933C910D7059BE99A4007EC9BFCE99ABF
:10052000F90FD8E0E4C9FAE4CCFB2275F010EF2F04
:10053000FFEE33FEED33FDCC33CCC833C810D70704
:100540009BEC9AE899400AED9BFDEC9AFCE899F83F
:0E0550000FD5F0DAE4CDFBE4CCFAE4C8F922D2
:10055E00FAE2FB0808E2F925F0F218E2CA3AF222B2
:09056E00EBF208EAF208E9F222BE
:10057700D083D082F8E4937012740193700DA3A313
:1005870093F8740193F5828883E473740293686027
:06059700EFA3A3A380DF27
:00000001FF
