:03000000020003F8
:0C000300787FE4F6D8FD75810902004A00
:1000EB0000010002000300040005000600000000F0
:0400FB000000000001
:1000CB00EF1FAA0670011E4A6015E4FCFDC3ED94F8
:0F00DB004BEC6480948050E80DBD00010C80EE6A
:0100EA0022F3
:10008F00758061E4F508F5097F647E001200CBE509
:10009F000925E0FFE50833FE74EB2FF58274003E6F
:1000AF00F583740193F5800509E50970020508C30E
:0C00BF009410E5086480948040CE80C757
:10000F00020000E493A3F8E493A34003F68001F207
:10001F0008DFF48029E493A3F85407240CC8C333F2
:10002F00C4540F4420C8834004F456800146F6DFC1
:10003F00E4800B01020408102040809000FFE47E52
:10004F00019360BCA3FF543F30E509541FFEE493B6
:10005F00A360010ECF54C025E060A840B8E493A37D
:10006F00FAE493A3F8E493A3C8C582C8CAC583CAA8
:10007F00F0A3C8C582C8CAC583CADFE9DEE780BE60
:0100FF000000
:00000001FF
