:0300000002036692
:0C036600787FE4F6D8FD75811A0201B51D
:0A033300C2A6D2A58F807F057E00D0
:10033D00D3EF9400EE94004007EF1F70F31E80F092
:01034D00228D
:07034E007F381200037F0558
:100355007E01EEC39F50097D010DED70FC0E80F20C
:010365002275
:08000300C2A7120333C2A522BB
:08037C00D2A7120333C2A5222F
:0A0372007F011200037F050203550E
:1002CE00AE07ED7005EE24808003EE24C0FF120011
:1002DE00031200C6FF600C12037C740129F9E43A84
:0402EE00FA80EE2282
:1002F20012034E12034E12034E7F381200037F0880
:100302001200037F011200037F061203507F0C02CA
:020312000003E6
:10031400C290D2930000E4FEEF339292C2930000A5
:0E03240000D293EF25E0FF0EBE08ED00D29050
:0103320022A8
:1002A800C290D29300E4FEC2930000EF25E0FFA2C3
:1002B80092E43342070000D29300000EBE08E80023
:0502C800D2903095FD0D
:0102CD00220E
:02020D008F1A46
:10020F007F32120355E4FDC2937F017E0012033D3E
:10021F00D2927F017E0012033DD2937F017E0012A6
:10022F00033D0DBD23E17F201203147F0812031439
:10023F007F101203147F7A1203147F211203147F8D
:0E024F00081203147F111203147F7A020314A5
:10025D00EF2438FF1203142095FD1202A88F1212FD
:10026D0002A88F11E512FE7C00E42511F50BEC3E82
:10027D00F50AFEAF0BE4FDFB7A80F9F8C3120134E9
:10028D00500CE4250BF50B7480350AF50A22C3E4F6
:0B029D00950BF50B7480950AF50A2202
:02000E00AB073E
:10001000E4FAEA14602214603E14605A14607624F4
:100020000460030200A5AE0AAF0B7C277D1012000E
:10003000DFEF2430F514806DAE0AAF0B7C277D1006
:100040001200DF7E037FE8CFCDCFCECCCE1200DF13
:10005000EF2430F515804EAE0AAF0B7C037DE8121D
:1000600000DF7E007F64CFCDCFCECCCE1200DFEF9D
:100070002430F516802FAE0AAF0B7C007D64120091
:10008000DF7E007F0ACFCDCFCECCCE1200DFEF24B3
:1000900030F5178010AE0AAF0B7C007D0A1200DF2E
:1000A000ED2430F518EA2480FFEB75F040A42FFF13
:1000B00012000374142AF8E6FF12037C0AEA6405AE
:0500C0006003020012C4
:0100C5002218
:1001B5001202F2D2AFD2A9758951E4F58DF58B758E
:1001C5008C3C758AB0D28C7F64120355C2917F0A2C
:1001D5007E0012033DD2917F647E0012033DE4FF51
:1001E50012020DE4FF12025DE4FF12000E7F0A12F7
:1001F50003557F0112020D7F0112025D7F0112007E
:080205000E7F0112035580C4B5
:03000B0002014AA5
:09014A00C0E0C0D075D000C00770
:10015300758C3C758AB0D28C0508E508640A704B2F
:100163000509E50964027040F509050EEFE50ED3B4
:10017300943B4034E50DB4010E050CE50CD395100A
:10018300400885100C8003750C00050F750E00E503
:100193000FD3940AE50FD3943B400D0513750F005D
:0B01A300E513B4180375130075080085
:0701AE00D007D0D0D0E032F1
:1000C600BB010689828A83E0225002E722BBFE0238
:0900D600E32289828A83E493226B
:1000DF00BC000BBE0029EF8DF084FFADF022E4CC05
:1000EF00F875F008EF2FFFEE33FEEC33FCEE9DECCE
:1000FF00984005FCEE9DFE0FD5F0E9E4CEFD22ED14
:10010F00F8F5F0EE8420D21CFEADF075F008EF2F5D
:10011F00FFED33FD4007985006D5F0F222C398FD4E
:05012F000FD5F0EA22EB
:10013400EB9FF5F0EA9E42F0E99D42F0EC6480C842
:0601440064809845F022E2
:00000001FF
