:10059D006A3A25642D2D2D2D693A25642D2D2D2D8D
:1005AD0050323A25783D3D003D3D50303A25783D5D
:1005BD003D3D3D004348313D25356C6420282535B2
:1005CD00646D5629200D0A002A2A2A2A2A2A2A2A47
:1005DD002A2A2A2A2A2A2A2A2A2A2A2A2A2A2A2A6E
:1005ED002A2A2A2A2A2A2A2A2A2A2A2A2A2A2A2A5E
:1005FD002A2A2A2A2A2A2A2A2A2A2A2A2A2A2A2A4E
:10060D002A2A2A2A2A0A0D002A20C0B3CCC3FBB3FA
:10061D00C62020203A2025730D0A00535443383943
:10062D004335325F544D37373035CBABC2B74144CC
:10063D0043C4A3BFE9C0B3CC002A20C0B3CCB0E6FD
:10064D00B1BE2020203A2025730D0A00312E300036
:10065D002A20B7A2B2BCC8D5C6DA2020203A202560
:10066D00730D0A00323031342D30342D3230002AE2
:10067D00205151202020203A203132393537343461
:10068D00363330200D0A002A20456D61696C203A01
:10069D002061726D666C794071712E636F6D200DE6
:1006AD000A002A20436F7079726967687420777722
:1006BD00772E61726D666C792E636F6D20B0B2B856
:1006CD00BBC0B3B5E7D7D30D0A00233445566778C1
:1006DD00899AABBCCDDEEF3445566778899AABBCB1
:1006ED00CDDEEFF045566778899AABBCCDDEEFF0E5
:1006FD0001566778899AABBCCDDEEFF001126778B1
:10070D00899AABBCCDDEEFF001122378899AABBC90
:10071D00CDDEEFF001122334899AABBCCDDEEFF0C4
:10072D0001122334459AABBCCDDEEFF00112233418
:10073D004556ABBCCDDEEFF001122334455667BCF8
:10074D00CDDEEFF00112233445566778CDDEEFF0A4
:10075D00011223344556677889DEEFF001122334F8
:10076D0045566778899AEFF001122334455667781C
:10077D00899AABF00112233445566778899AABBC40
:10078D000112233445566778899AABBCCD122334B8
:10079D0045566778899AABBCCDDE01122334455698
:0A07AD006778899AABBCCDDEEFF04F
:060E2500120E2B0207B7BC
:1007B700120CB87F01120D517F01120BFE781FEE4C
:1007C700F208EFF27F02120D517F02120BFE782121
:1007D700EEF208EFF2E47804F208F27F01120BFE62
:1007E700781FEEF208EFF27F02120BFE7821EEF28D
:1007F70008EFF27F967E00120D337805E22401F2AE
:1008070018E23400F2C308E2940318E2648094808B
:1008170040C9E47802F208F2E47800F208F2120E16
:10082700327800E2FE08E2FF08E2FC08E2FD9006EB
:10083700D775F00D120445EC75F00DA42583F583EB
:10084700E5822FF582E5833EF583E493F58074A76F
:100857002DF58274073CF583E493FFF5A07BFF7ABF
:1008670005799D18E2FD08E27832CDF208EDF278BD
:1008770000E2FD08E27834CDF208EDF208EFF2125B
:1008870000887BFF7A0579B57800E2FE08E2FF0869
:10089700E2FC08E29006D775F00D120445EC75F0FE
:1008A7000DA42583F583E5822FF582E5833EF58345
:1008B700E4937832F21200887F967E00120D337F20
:1008C70001120BFE781FEEF208EFF27F02120BFE09
:0708D7007821EEF208EFF2B8
:1008DE00781FE2FE08E2FFE4FCFD7B887A13F9F84C
:1008EE0012039AE47BFF7AFFF9F8120BBA7823EE23
:1008FE00F208EFF27821E2FE08E2FFE4FCFD7B88CD
:10090E007A13F9F812039AE47BFF7AFFF9F8120BC7
:10091E00BA7825EEF208EFF27BFF7A0579C1781FDF
:10092E00E2FE08E2FFE4FCFD78321204207823E2B6
:10093E00FF08E27836CFF208EFF21200887FFA7ED7
:04094E0000120D3353
:100952007801E22401F218E23400F2C308E2940DB5
:1009620018E26480948050030208257803E224018F
:10097200F218E23400F2C308E2941018E2648094A0
:0809820080500302081F80FEF3
:100A0B007BFF7A0579D5120088783274FFF208746F
:100A1B0006F2087428F27BFF7A06791512008878A3
:100A2B003274FFF2087406F2087459F27BFF7A06EF
:100A3B007946120088783274FFF2087406F2087453
:100A4B0071F27BFF7A06795D1200887BFF7A06795B
:100A5B007C1200887BFF7A0679941200887BFF7AE0
:0F0A6B000679AF1200887BFF7A0579D5020088E3
:010E3100229E
:030E2B00020DD6DF
:010E3200229D
:100D3300EF1FAA0670011E4A6013E4FCFDC3ED9485
:0D0D43004BEC940050EA0DBD00010C80F057
:010D50002280
:03002300020E3397
:010E3300328C
:080E05008F993099FDC299227A
:070E0D003098FDAF99C29877
:010E140022BB
:100CE9007806EBF208EAF208E9F2AF051DEF601A9F
:100CF9007806E2FB0808E2F92401F218E2FA340066
:0B0D0900F2120381FF120E0580E022B1
:100DD600759850758920758840758DFA758BFA75EA
:070DE6008780C298C2992228
:100C7D00544D373730355F576169744452445928A4
:100C8D002920D0BEC6ACD3A6B4F0B3ACCAB1202EC9
:100C9D002E2E0D0A00D6D8D0C2CDACB2BD535049C0
:0B0CAD00BDD3BFDACAB1D0F20D0A00BF
:100CB8007F0A7E00120D33120D897F057E00120D0A
:100CC80033120DA47F057E00120D337F20120E15FE
:100CD8007F08120E157F01120D517F057E00020D4F
:010CE80033D8
:010E3400229B
:100D8900D2917F017E00120D33C2917F027E001243
:0B0D99000D33D2917F017E00020D336C
:100DA400C2907FFF1200037FFF1200037FFF120037
:090DB400037FFF120003D290221C
:10000300E4FEEF30E704D2928002C292C293EF255E
:0F001300E0FF120E34D293120E340EEEB408E357
:0100220022BB
:100B3100780D120420780DE2FC08E2FD08E2FE08BF
:100B4100E2FF780812040D780D120420780DE2FB03
:0A0B510008E2F908E2FA08E2CBF826
:100B5B00E4FFFEC293120E34EF25E0FF3094010F39
:0A0B6B00D293120E340EEEB408E926
:010B7500225D
:080E1500C290120003D29022EA
:100C3F007809120420C2907809E2FC08E2FD08E26C
:100C4F00FE08E2FF78101203FA1200037809E2FCA3
:100C5F0008E2FD08E2FE08E2FF78081203FA12002C
:0E0C6F00037809080808E2FF120003D2902261
:070E1D00C290120B5BD290A2
:010E240022AB
:100DBD00C290120B5BAD07ED7D00FC120B5BED2FAE
:080DCD00FDE43CD290FEAF05ED
:010DD50022FB
:100B7600C290120B5BE4FCFDFE120B31E4FCFDFEA1
:100B8600EB2FFFEE3AFEED39FDEC38FC120B31E4AB
:100B9600FCFDFEEB2FFFEE3AFEED39FDEC38FC785E
:100BA6000D120420D290780DE2FC08E2FD08E2FE68
:030BB60008E2FF53
:010BB9002219
:03098A00120E1535
:10098D00782B12042C00000000E47F407E1FFDFC3C
:10099D00782BE2FB08E2F908E2FA08E2CBF8C31281
:1009AD0003E9502230951F782BE2FC08E2FD08E2A6
:1009BD00FE08E22401FFE43EFEE43DFDE43CFC784C
:1009CD002B12042080C3E47F407E1FFDFC782BE2B8
:1009DD00FB08E2F908E2FA08E2CBF8C31203E9409A
:1009ED001C7BFF7A0C797D1200887BFF7A0C79A233
:0D09FD00120088120DA47F057E00120D333C
:010A0A0022C9
:100AE800EF24F0601624F0601224C0601514601220
:100AF80024F1600E14600B2471702D78167408F2BE
:100B0800800578167418F2120E157816E27812B469
:100B18000808080808E2FF020E15E2FC08E2FD08D2
:080B2800E2FE08E2FF120C3F9F
:010B300022A2
:040A7A007817EFF208
:100A7E0024F0601624F0601224C060151460122455
:100A8E00F1600E14600B2471700E78187408F280E9
:100A9E000E78187418F2800774FFFFFEFDFC2278A2
:100AAE0017E24408FF120E1508E2FBB41009120DEE
:100ABE00BDE4FCFD088012EBB40809120E1DE4FC27
:100ACE00FDFE8003120B7678191204207819E2FCD1
:090ADE0008E2FD08E2FE08E2FF57
:010AE70022EC
:100D51007827EFF2BF01047F1080087827E2B40200
:0C0D61000A7F11120E157F4612098A222B
:100D6D00781DEFF2BF01047F108008781DE2B402F8
:0C0D7D000A7F11120E157F8612098A22CF
:100D1400781EEFF2BF01047F108008781EE2B4024F
:0F0D24000D7F11120E157FC6120E1512098D22AA
:040BFE007827EFF273
:100C0200E47829F208F27828F212098D7827E2FDB9
:100C1200B401047F388006EDB402057F39120E1547
:100C2200120DBD7829EEF208EFF27828E204F2E222
:0C0C3200C3940240D47829E2FE08E2FFDF
:010C3E002293
:0C0DED00783EEFF2120E05783EE2FF2285
:030E2E00020E0DA4
:03000000020DF9F5
:0C0DF900787FE4F6D8FD758121020E25FC
:10038100BB010689828A83E0225002E722BBFE027A
:09039100E32289828A83E49322AD
:10039A00E88FF0A4CC8BF0A42CFCE98EF0A42CFC02
:1003AA008AF0EDA42CFCEA8EF0A4CDA8F08BF0A480
:1003BA002DCC3825F0FDE98FF0A42CCD35F0FCEBDF
:1003CA008EF0A4FEA9F0EB8FF0A4CFC5F02ECD39A4
:0F03DA00FEE43CFCEAA42DCE35F0FDE43CFC2211
:100BBA00C2D5E830E70FB2D5E4C39BFBE49AFAE466
:100BCA0099F9E498F8EC30E717B2D5120BF0120451
:100BDA00CCE4C39BFBE49AFAE499F9E498F880031D
:100BEA001204CC30D50DE4C39FFFE49EFEE49DFDC4
:040BFA00E49CFC2259
:1003E900EB9FF5F0EA9E42F0E99D42F0E89C45F06A
:0103F90022E1
:1003FA00E8600FECC313FCED13FDEE13FEEF13FFE1
:03040A00D8F12204
:10040D00E8600FEFC333FFEE33FEED33FDEC33FC4D
:03041D00D8F122F1
:0C042000ECF208EDF208EEF208EFF22218
:10042C00D083D082E493F208740193F2087402939F
:09043C00F208740393F2740473D6
:0C044500A42582F582E5F03583F58322C2
:10002600E5082432F8E2050822782F3007027832F4
:10003600E475F00112055E0203812000EB7F2ED2EB
:10004600008018EF540F2490D43440D4FF30040BB2
:10005600EF24BFB41A0050032461FFE509600215BE
:1000660009050CE50C7002050B30070D782FE475B9
:10007600F00112055EEF02047E020DED7403D20755
:100086008003E4C207F508782F12056EE4F509F53A
:100096000BF50CE50960077F2012006180F5750AF3
:1000A600FFC201C200C202C203C205C206C20812D2
:1000B600002FFF700D3007057F00120072AF0CAEE7
:1000C6000B22B4255FC2D5C20412002FFF24D0B480
:1000D6000A00501A75F00A780930D50508B6FF01EE
:1000E60006C6A426F620D5047002D20380D924CFF2
:1000F600B41A00EF5004C2E5D204020271D20180A4
:10010600C6D20080C0D20280BCD2D580BAD20580C9
:10011600B47F201200612002077401B5090040F186
:10012600120026FF120061020099D208D2068095BD
:10013600120026FB120026FA120026F94A4B700618
:1001460079427A037BFF20022EE509602A7E008E23
:100156008275830012045160060EEE650A70F0C2C5
:10016600D5EBC0E0EAC0E0E9C0E0EE1202B8D0E0AC
:10017600F9D0E0FAD0E0FB120381FF60AAEBC0E001
:10018600EAC0E0E9C0E0120061D0E02401F9D0E065
:100196003400FAD0E0FBE50A0460DCD50AD9808792
:1001A6007BFF7A0279B4D202809C791080027908AA
:1001B600C206C2088008D2D5790A8004790AC2D557
:1001C600E50A047002F50AE4FAFDFEFF120026FCB9
:1001D6007B08200113120026FD7B1030000A120056
:1001E60026FE120026FF7B20EC3382D592D55013D3
:1001F600C3E43000069FFFE49EFEE42001039DFD5C
:10020600E49CFCE4CBF8C201EC700CCFCECDCCE87C
:1002160024F8F870F38017C3EF33FFEE33FEED33A7
:10022600FDEC33FCEB33FB994002FB0FD8E9EB30D6
:100236000105F8D0E0C448B201C0E00AEC4D4E4FCB
:1002460078207B0070C2EAB50A0040BCC0E012020A
:10025600BAD0F0D0E0200104C4C0E0C4B201C0F0BE
:1002660012004AD0F0D5F0EB02009912057701365C
:100276005301B05801074C01034201B44F01BC447D
:1002860001BC49011C4301C25501A64601A6450110
:01029600A6C1
:1002970047036250010B2D010F2E01322B0113234F
:1002A700013020034B2A00CB480000012A3F3F3F83
:1002B70000790AA2D5200314300509B910020404F5
:1002C700B9080104A2D52006025001042002689251
:1002D70002B509005034C0E07F203003197F30A2F7
:1002E7000272067205500F120311C202C206C2053E
:1002F700C2087F30800F300503E9C0E0120061308B
:100307000503D0E0F9D0E0B509CC3005177F30B947
:10031700100C1200617F583004077F788003B908FA
:10032700031200613002057F2D0200617F20200843
:10033700F87F2B2006F322920280CF286E756C6C13
:100347002900D2011200263001F8C201780930D500
:100357000108F60200CB2D5043495812002624030A
:10036700B405004001E490035D93120052743A1201
:0A0377000052D2037509040201B020
:10045100BB010CE58229F582E5833AF583E0225060
:1004610006E92582F8E622BBFE06E92582F8E222AA
:0D047100E58229F582E5833AF583E49322C4
:10047E00BB010689828A83F0225002F722BBFE015D
:02048E00F32257
:1004900075F008758200EF2FFFEE33FECD33CDCC23
:1004A00033CCC58233C5829BED9AEC99E5829840A6
:1004B0000CF582EE9BFEED9AFDEC99FC0FD5F0D683
:1004C000E4CEFBE4CDFAE4CCF9A88222B800C1B9AD
:1004D0000059BA002DEC8BF084CFCECDFCE5F0CBEB
:1004E000F97818EF2FFFEE33FEED33FDEC33FCEB24
:1004F00033FB10D703994004EB99FB0FD8E5E4F9DF
:10050000FA227818EF2FFFEE33FEED33FDEC33FCCB
:10051000C933C910D7059BE99A4007EC9BFCE99ABF
:10052000F90FD8E0E4C9FAE4CCFB2275F010EF2F04
:10053000FFEE33FEED33FDCC33CCC833C810D70704
:100540009BEC9AE899400AED9BFDEC9AFCE899F83F
:0E0550000FD5F0DAE4CDFBE4CCFAE4C8F922D2
:10055E00FAE2FB0808E2F925F0F218E2CA3AF222B2
:09056E00EBF208EAF208E9F222BE
:10057700D083D082F8E4937012740193700DA3A313
:1005870093F8740193F5828883E473740293686027
:06059700EFA3A3A380DF27
:00000001FF
