:0300000002068570
:0C068500787FE4F6D8FD75812902055E3F
:1004780025356C640A00233445566778899AABBCE5
:10048800CDDEEF3445566778899AABBCCDDEEFF008
:1004980045566778899AABBCCDDEEFF00156677890
:1004A800899AABBCCDDEEFF001126778899AABBCB4
:1004B800CDDEEFF001122378899AABBCCDDEEFF0E8
:1004C80001122334899AABBCCDDEEFF0011223343C
:1004D800459AABBCCDDEEFF0011223344556ABBCD8
:1004E800CDDEEFF001122334455667BCCDDEEFF0C8
:1004F8000112233445566778CDDEEFF0011223341C
:100508004556677889DEEFF001122334455667783F
:10051800899AEFF00112233445566778899AABF02F
:100528000112233445566778899AABBC01122334EB
:1005380045566778899AABBCCD12233445566778FF
:10054800899AABBCCDDE0112233445566778899A67
:06055800ABBCCDDEEFF0AC
:10067200758DFD858D8B438920759850D2ACD28EB5
:03068200D29922E8
:10065800EF1FAA0670011E4A600F7D66EDD3940055
:0906680040EE7C03DCFE1D80F372
:010671002266
:10060200E4F50AF50B1205B57C0B7DB912035FED1B
:1006120024B0F509EC3436F508050BE50B7002053C
:0E0622000AC39464E50A940040DBAE08AF09F9
:0106300022A7
:10055E00120672D2AFE4F526F527E4F524F525123E
:10056E0006028E228F237BFF7A047978E48F0E8E1B
:10057E000DF50CF50B1200657FF47E011206580581
:10058E0025E52570020524C3940DE524648094802E
:10059E0040CD0527E52770020526C39410E5266495
:0705AE0080948040B580FE3F
:10035F00C2D5EC30E709B2D5E4C39DFDE49CFCEEB9
:10036F0030E715B2D5E4C39FFFE49EFE1203EDC341
:10037F00E49DFDE49CFC80031203ED30D507C3E43C
:06038F009FFFE49EFE2228
:10000300E517240BF8E60517227808300702780B6A
:10001300E475F0011204420203952000EB7F2ED217
:10002300008018EF540F2490D43440D4FF30040BD5
:10003300EF24BFB41A0050032461FFE518600215D2
:1000430018051BE51B7002051A30070D7808E475C7
:10005300F001120442EF0203DB0206317403D207FC
:100063008003E4C207F5178B088A09890AE4F518A7
:10007300F51AF51BE51860077F2012003E80F57521
:1000830019FFC201C200C202C203C205C206C208EE
:1000930012000CFF700D3007057F0012004FAF1BDD
:1000A300AE1A22B4255FC2D5C20412000CFF24D0BD
:1000B300B40A00501A75F00A781830D50508B6FF4F
:1000C3000106C6A426F620D5047002D20380D924E3
:1000D300CFB41A00EF5004C2E5D20402024FD2019A
:1000E30080C6D20080C0D20280BCD2D580BAD205ED
:1000F30080B47F2012003E2002077401B51800402F
:10010300F1120003FF12003E020077D208D20680EC
:1001130095120003FB120003FA120003F94A4B7015
:100123000679207A037BFF20022EE518602A7E00E1
:100133008E827583001203AE60060EEE651970F0B1
:10014300C2D5EBC0E0EAC0E0E9C0E0EE120296D00F
:10015300E0F9D0E0FAD0E0FB120395FF60AAEBC010
:10016300E0EAC0E0E9C0E012003ED0E02401F9D0AB
:10017300E03400FAD0E0FBE5190460DCD519D9803E
:10018300877BFF7A027992D202809C791080027970
:1001930008C206C2088008D2D5790A8004790AC247
:1001A300D5E519047002F519E4FAFDFEFF12000308
:1001B300FC7B08200113120003FD7B1030000A12A0
:1001C3000003FE120003FF7B20EC3382D592D5504F
:1001D30013C3E43000069FFFE49EFEE42001039D69
:1001E300FDE49CFCE4CBF8C201EC700CCFCECDCC8B
:1001F300E824F8F870F38017C3EF33FFEE33FEED16
:1002030033FDEC33FCEB33FB994002FB0FD8E9EBF6
:10021300300105F8D0E0C448B201C0E00AEC4D4E0D
:100223004F78207B0070C2EAB5190040BCC0E012D1
:100233000298D0F0D0E0200104C4C0E0C4B201C0F1
:10024300F0120027D0F0D5F0EB0200771204520130
:100253001453018E5800E54C00E14201924F019A7C
:0F02630044019A4900FA4301A0550184460184E1
:100272004501844703405000E92D00ED2E01102B6B
:1002820000F123010E2003292A00A94800000108D9
:100292003F3F3F00790AA2D5200314300509B91067
:1002A200020404B9080104A2D52006025001042068
:1002B20002689202B518005034C0E07F2030031962
:1002C2007F30A20272067205500F1202EFC202C202
:1002D20006C205C2087F30800F300503E9C0E01274
:1002E200003E300503D0E0F9D0E0B518CC30051758
:1002F2007F30B9100C12003E7F583004077F78809F
:1003020003B9080312003E3002057F2D02003E7F32
:10031200202008F87F2B2006F322920280CF286E3D
:10032200756C6C2900D2011200033001F8C2017809
:100332001830D50108F60200A92D50434958120081
:10034200032403B405004001E490033B9312002F01
:0D035200743A12002FD20375180402018EB8
:1005B500AC1CAD1DAE1EAF1F7810EC4D4E4F700438
:1005C5007CA57DA5C3EC13FCED13FDEE13FEEF1327
:1005D500FF5010EC64CCFCED644CFDEE644EFEEF78
:1005E50064CEFFD8DF8C1C8D1D8E1E8F1FEE547FB1
:0D05F500FE228E1C8F1D74A5F51EF51F2221
:10039500BB010689828A83E0225002E722BBFE0266
:0903A500E32289828A83E4932299
:1003AE00BB010CE58229F582E5833AF583E0225004
:1003BE0006E92582F8E622BBFE06E92582F8E2224E
:0D03CE00E58229F582E5833AF583E4932268
:1003DB00BB010689828A83F0225002F722BBFE0101
:0203EB00F322FB
:1003ED00BC000BBE0029EF8DF084FFADF022E4CCF4
:1003FD00F875F008EF2FFFEE33FEEC33FCEE9DECBD
:10040D00984005FCEE9DFE0FD5F0E9E4CEFD22ED02
:10041D00F8F5F0EE8420D21CFEADF075F008EF2F4C
:10042D00FFED33FD4007985006D5F0F222C398FD3D
:05043D000FD5F0EA22DA
:10044200FAE6FB0808E6F925F0F618E6CA3AF622BB
:10045200D083D082F8E4937012740193700DA3A339
:1004620093F8740193F5828883E47374029368604D
:06047200EFA3A3A380DF4D
:10063100EFB40A07740D12063C740A309811A89998
:10064100B8130CC2983098FDA899C298B811F63029
:0706510099FDC299F5992201
:00000001FF
