:030000000208668D
:0C086600787FE4F6D8FD75812902069722
:10057F006A3A25642D2D2D2D693A25642D2D2D2DAB
:10058F0050323A25783D3D003D3D50303A25783D7B
:10059F003D3D3D004348313D25356C6420282535D0
:1005AF00646D5629200D0A00233445566778899AC1
:1005BF00ABBCCDDEEF3445566778899AABBCCDDE48
:1005CF00EFF045566778899AABBCCDDEEFF0015658
:1005DF006778899AABBCCDDEEFF001126778899A04
:1005EF00ABBCCDDEEFF001122378899AABBCCDDE28
:1005FF00EFF001122334899AABBCCDDEEFF001127C
:10060F002334459AABBCCDDEEFF0011223344556AF
:10061F00ABBCCDDEEFF001122334455667BCCDDE07
:10062F00EFF00112233445566778CDDEEFF001125B
:10063F0023344556677889DEEFF00112233445568F
:10064F006778899AEFF00112233445566778899AB3
:10065F00ABF00112233445566778899AABBC01126F
:10066F00233445566778899AABBCCD12233445564F
:10067F006778899AABBCCDDE011223344556677873
:08068F00899AABBCCDDEEFF04F
:10085300758DFD858D8B438920759850D2ACD28ED2
:03086300D2992205
:10083900EF1FAA0670011E4A600F7D66EDD3940072
:0908490040EE7C03DCFE1D80F38F
:010852002283
:1007E300E4F50AF50B1207967C0B7DB912035FED56
:1007F30024B0F509EC3436F508050BE50B7002055A
:0E0803000AC39464E50A940040DBAE08AF0916
:0108110022C4
:10069700120853D2AFE4F526F527E4F524F5251221
:1006A70007E38E228F239005B775F00DE527120417
:1006B70063E52675F00DA42583F583E5822525F5E9
:1006C70082E5833524F583E493F58074872527F540
:1006D7008274063526F583E493F5A07BFF7A0579C6
:1006E7007F85260B85270C85240D85250EF50F1292
:1006F70000657BFF7A0579979005B775F00DE527BB
:10070700120463E52675F00DA42583F583E582259C
:1007170025F582E5833524F583E493F50B1200650F
:100727007F967E00120839AE22AF237C137D881294
:10073700046FE47BFF7AFFF9F81203D18E288F2923
:100747007BFF7A0579A3E485230E85220DF50CF549
:100757000B85280F8529101200657FFA7E00120885
:10076700390525E52570020524C3940DE524648029
:10077700948050030206A60527E52770020526C3C5
:0F0787009410E5266480948050030206A180FE42
:10035F00C2D5EC30E709B2D5E4C39DFDE49CFCEEB9
:10036F0030E715B2D5E4C39FFFE49EFE1204F4C339
:10037F00E49DFDE49CFC80031204F430D507C3E434
:06038F009FFFE49EFE2228
:1003950075F008758200EF2FFFEE33FECD33CDCC1F
:1003A50033CCC58233C5829BED9AEC99E5829840A2
:1003B5000CF582EE9BFEED9AFDEC99FC0FD5F0D67F
:1003C500E4CEFBE4CDFAE4CCF9A88222B800C1B9A9
:1003D5000059BA002DEC8BF084CFCECDFCE5F0CBE7
:1003E500F97818EF2FFFEE33FEED33FDEC33FCEB20
:1003F50033FB10D703994004EB99FB0FD8E5E4F9DB
:10040500FA227818EF2FFFEE33FEED33FDEC33FCC7
:10041500C933C910D7059BE99A4007EC9BFCE99ABB
:10042500F90FD8E0E4C9FAE4CCFB2275F010EF2F00
:10043500FFEE33FEED33FDCC33CCC833C810D70700
:100445009BEC9AE899400AED9BFDEC9AFCE899F83B
:0E0455000FD5F0DAE4CDFBE4CCFAE4C8F922CE
:0C046300A42582F582E5F03583F58322A4
:10046F00EC8EF0A4CCC5F0CCCDF8EFA4CEC5F02D1A
:10047F00FDE43CFCE8A42EC8C5F03DFDE43CFCEFD8
:0D048F00A4FFE5F028FEE43DFDE43CFC2266
:10000300E517240BF8E60517227808300702780B6A
:10001300E475F00112054902049C2000EB7F2ED207
:10002300008018EF540F2490D43440D4FF30040BD5
:10003300EF24BFB41A0050032461FFE518600215D2
:1000430018051BE51B7002051A30070D7808E475C7
:10005300F001120549EF0204E20208127403D20709
:100063008003E4C207F5178B088A09890AE4F518A7
:10007300F51AF51BE51860077F2012003E80F57521
:1000830019FFC201C200C202C203C205C206C208EE
:1000930012000CFF700D3007057F0012004FAF1BDD
:1000A300AE1A22B4255FC2D5C20412000CFF24D0BD
:1000B300B40A00501A75F00A781830D50508B6FF4F
:1000C3000106C6A426F620D5047002D20380D924E3
:1000D300CFB41A00EF5004C2E5D20402024FD2019A
:1000E30080C6D20080C0D20280BCD2D580BAD205ED
:1000F30080B47F2012003E2002077401B51800402F
:10010300F1120003FF12003E020077D208D20680EC
:1001130095120003FB120003FA120003F94A4B7015
:100123000679207A037BFF20022EE518602A7E00E1
:100133008E827583001204B560060EEE651970F0A9
:10014300C2D5EBC0E0EAC0E0E9C0E0EE120296D00F
:10015300E0F9D0E0FAD0E0FB12049CFF60AAEBC008
:10016300E0EAC0E0E9C0E012003ED0E02401F9D0AB
:10017300E03400FAD0E0FBE5190460DCD519D9803E
:10018300877BFF7A027992D202809C791080027970
:1001930008C206C2088008D2D5790A8004790AC247
:1001A300D5E519047002F519E4FAFDFEFF12000308
:1001B300FC7B08200113120003FD7B1030000A12A0
:1001C3000003FE120003FF7B20EC3382D592D5504F
:1001D30013C3E43000069FFFE49EFEE42001039D69
:1001E300FDE49CFCE4CBF8C201EC700CCFCECDCC8B
:1001F300E824F8F870F38017C3EF33FFEE33FEED16
:1002030033FDEC33FCEB33FB994002FB0FD8E9EBF6
:10021300300105F8D0E0C448B201C0E00AEC4D4E0D
:100223004F78207B0070C2EAB5190040BCC0E012D1
:100233000298D0F0D0E0200104C4C0E0C4B201C0F1
:10024300F0120027D0F0D5F0EB0200771205590128
:100253001453018E5800E54C00E14201924F019A7C
:0F02630044019A4900FA4301A0550184460184E1
:100272004501844703405000E92D00ED2E01102B6B
:1002820000F123010E2003292A00A94800000108D9
:100292003F3F3F00790AA2D5200314300509B91067
:1002A200020404B9080104A2D52006025001042068
:1002B20002689202B518005034C0E07F2030031962
:1002C2007F30A20272067205500F1202EFC202C202
:1002D20006C205C2087F30800F300503E9C0E01274
:1002E200003E300503D0E0F9D0E0B518CC30051758
:1002F2007F30B9100C12003E7F583004077F78809F
:1003020003B9080312003E3002057F2D02003E7F32
:10031200202008F87F2B2006F322920280CF286E3D
:10032200756C6C2900D2011200033001F8C2017809
:100332001830D50108F60200A92D50434958120081
:10034200032403B405004001E490033B9312002F01
:0D035200743A12002FD20375180402018EB8
:10079600AC1CAD1DAE1EAF1F7810EC4D4E4F700455
:1007A6007CA57DA5C3EC13FCED13FDEE13FEEF1344
:1007B600FF5010EC64CCFCED644CFDEE644EFEEF95
:1007C60064CEFFD8DF8C1C8D1D8E1E8F1FEE547FCE
:0D07D600FE228E1C8F1D74A5F51EF51F223E
:10049C00BB010689828A83E0225002E722BBFE025E
:0904AC00E32289828A83E4932291
:1004B500BB010CE58229F582E5833AF583E02250FC
:1004C50006E92582F8E622BBFE06E92582F8E22246
:0D04D500E58229F582E5833AF583E4932260
:1004E200BB010689828A83F0225002F722BBFE01F9
:0204F200F322F3
:1004F400BC000BBE0029EF8DF084FFADF022E4CCEC
:10050400F875F008EF2FFFEE33FEEC33FCEE9DECB4
:10051400984005FCEE9DFE0FD5F0E9E4CEFD22EDFA
:10052400F8F5F0EE8420D21CFEADF075F008EF2F44
:10053400FFED33FD4007985006D5F0F222C398FD35
:050544000FD5F0EA22D2
:10054900FAE6FB0808E6F925F0F618E6CA3AF622B3
:10055900D083D082F8E4937012740193700DA3A331
:1005690093F8740193F5828883E473740293686045
:06057900EFA3A3A380DF45
:10081200EFB40A07740D12081D740A309811A899D2
:10082200B8130CC2983098FDA899C298B811F63046
:0708320099FDC299F599221E
:00000001FF
