:100480006A3A25642D693A2D25643D50323A257823
:100490003D003D3D50303A25783D3D0D0A00233466
:1004A00045566778899AABBCCDDEEF344556677800
:1004B000899AABBCCDDEEFF045566778899AABBC24
:1004C000CDDEEFF001566778899AABBCCDDEEFF058
:1004D00001126778899AABBCCDDEEFF00112237868
:1004E000899AABBCCDDEEFF001122334899AABBC04
:1004F000CDDEEFF001122334459AABBCCDDEEFF038
:10050000011223344556ABBCCDDEEFF0011223348B
:10051000455667BCCDDEEFF00112233445566778AF
:10052000CDDEEFF0011223344556677889DEEFF017
:100530000112233445566778899AEFF0011223346B
:1005400045566778899AABF001122334455667788F
:10055000899AABBC0112233445566778899AABBCA3
:10056000CD12233445566778899AABBCCDDE011293
:0E057000233445566778899AABBCCDDEEFF098
:10057E00120A1FE47802F208F2E47800F208F27F21
:10058E00FA7E0012092D7800E2FE08E2FF08E2FC76
:10059E0008E2FD90049E75F00D1203F6EC75F00D59
:1005AE00A42583F583E5822FF582E5833EF583E46A
:1005BE0093F580746E2DF58274053CF583E493F506
:1005CE00A07BFF7A0479807829ECF208EDF27800AE
:1005DE00E2FF08E2782BCFF208EFF208E5A0F21264
:1005EE0000887BFF7A0479927829E580F2120088E0
:1005FE007801E22401F218E23400F2C308E2940D0D
:10060E0018E264809480500302058D7803E2240181
:10061E00F218E23400F2C308E2941018E2648094F7
:09062E00805003020587020581DA
:030A1F000209D0F9
:010A250022AE
:10092D00EF1FAA0670011E4A6013E4FCFDC3ED948F
:0D093D004BEC940050EA0DBD00010C80F061
:01094A00228A
:03002300020A26A8
:010A2600329D
:0809FF008F993099FDC2992285
:070A07003098FDAF99C29881
:010A0E0022C5
:1008E3007804EBF208EAF208E9F2AF051DEF601AAB
:1008F3007804E2FB0808E2F92401F218E2FA340072
:0B090300F2120381FF1209FF80E022C6
:1009D000759850758920758840758DFA758BFA75F4
:0709E0008780C298C2992232
:10087700544D373730355F576169744452445928AE
:100887002920D0BEC6ACD3A6B4F0B3ACCAB1202ED3
:100897002E2E0D0A00D6D8D0C2CDACB2BD535049CA
:0B08A700BDD3BFDACAB1D0F20D0A00C9
:1008B2007F0A7E0012092D1209837F057E0012092C
:1008C2002D12099E7F057E0012092D7F20120A0F2C
:1008D2007F08120A0F7F0112094B7F057E00020971
:0108E2002DE8
:010A270022AC
:10098300D2917F017E0012092DC2917F027E001257
:0B099300092DD2917F017E0002092D8A
:10099E00C2907FFF1200037FFF1200037FFF120041
:0909AE00037FFF120003D2902226
:10000300E4FEEF30E704D2928002C292C293EF255E
:0F001300E0FF120A27D293120A270EEEB408E379
:0100220022BB
:10076F00780B1203D1780BE2FC08E2FD08E2FE08D9
:10077F00E2FF78081203BE780B1203D1780BE2FB6D
:0A078F0008E2F908E2FA08E2CBF8EC
:10079900E4FFFEC293120A27EF25E0FF3094010F10
:0A07A900D293120A270EEEB408E9FD
:0107B3002223
:080A0F00C290120003D29022F4
:1008390078071203D1C2907807E2FC08E2FD08E2CA
:10084900FE08E2FF78101203AB1200037807E2FCFE
:1008590008E2FD08E2FE08E2FF78081203AB120085
:0E086900037807080808E2FF120003D290226D
:070A1700C290120799D29072
:010A1E0022B5
:1009B700C290120799AD07ED7D00FC120799ED2F44
:0809C700FDE43CD290FEAF05F7
:0109CF002205
:1007B400C290120799E4FCFDFE12076FE4FCFDFEF3
:1007C400EB2FFFEE3AFEED39FDEC38FC12076FE437
:1007D400FCFDFEEB2FFFEE3AFEED39FDEC38FC7824
:1007E4000B1203D1D290780BE2FC08E2FD08E2FE82
:0307F40008E2FF19
:0107F70022DF
:03063700120A0F95
:10063A00780F1203DD00000000E47F407E1FFDFCFE
:10064A00780FE2FB08E2F908E2FA08E2CBF8C312F3
:10065A00039A502230951F780FE2FC08E2FD08E267
:10066A00FE08E22401FFE43EFEE43DFDE43CFC78A2
:10067A000F1203D180C3E47F407E1FFDFC780FE296
:10068A00FB08E2F908E2FA08E2CBF8C312039A403F
:10069A001C7BFF7A0879771200887BFF7A08799C9D
:0D06AA0012008812099E7F057E0012092DA6
:0106B7002220
:10072600EF24F0601624F0601224C06015146012E5
:1007360024F1600E14600B2471702D78187408F281
:10074600800578187418F2120A0F7818E27814B433
:100756000808080808E2FF020A0FE2FC08E2FD08A2
:08076600E2FE08E2FF1208396F
:01076E002268
:0406B8007819EFF2CC
:1006BC0024F0601624F0601224C06015146012241B
:1006CC00F1600E14600B2471700E781A7408F280AD
:1006DC000E781A7418F2800774FFFFFEFDFC227866
:1006EC0019E24408FF120A0F08E2FBB410091209C0
:1006FC00B7E4FCFD088012EBB40809120A17E4FCFD
:10070C00FDFE80031207B4781B1203D1781BE2FCA8
:09071C0008E2FD08E2FE08E2FF1C
:0107250022B1
:10094B00781FEFF2BF01047F108008781FE2B4021A
:0C095B000A7F11120A0F7F461206372295
:100967007820EFF2BF01047F1080087820E2B402FC
:0C0977000A7F11120A0F7F861206372239
:10090E007821EFF2BF01047F1080087821E2B40253
:0F091E000D7F11120A0F7FC6120A0F12063A221E
:0407F8007822EFF282
:1007FC00E47824F208F27823F212063A7822E2FD29
:10080C00B401047F388006EDB402057F39120A0F5B
:10081C001209B77824EEF208EFF27823E204F2E240
:0C082C00C3940240D47824E2FE08E2FFEE
:01083800229D
:0C09E7007835EFF21209FF7835E2FF22AC
:030A2200020A07BE
:030000000209F3FF
:0C09F300787FE4F6D8FD75812102057EB6
:10038100BB010689828A83E0225002E722BBFE027A
:09039100E32289828A83E49322AD
:10039A00EB9FF5F0EA9E42F0E99D42F0E89C45F0B9
:0103AA002230
:1003AB00E8600FECC313FCED13FDEE13FEEF13FF30
:0303BB00D8F12254
:1003BE00E8600FEFC333FFEE33FEED33FDEC33FC9D
:0303CE00D8F12241
:0C03D100ECF208EDF208EEF208EFF22268
:1003DD00D083D082E493F208740193F208740293EF
:0903ED00F208740393F274047326
:0C03F600A42582F582E5F03583F5832212
:10002600E5082429F8E2050822782630070278290F
:10003600E475F0011204410203812000EB7F2ED209
:10004600008018EF540F2490D43440D4FF30040BB2
:10005600EF24BFB41A0050032461FFE509600215BE
:1000660009050CE50C7002050B30070D7826E475C2
:10007600F001120441EF02042F0209E77403D207CC
:100086008003E4C207F5087826120451E4F509F561
:100096000BF50CE50960077F2012006180F5750AF3
:1000A600FFC201C200C202C203C205C206C20812D2
:1000B600002FFF700D3007057F00120072AF0CAEE7
:1000C6000B22B4255FC2D5C20412002FFF24D0B480
:1000D6000A00501A75F00A780930D50508B6FF01EE
:1000E60006C6A426F620D5047002D20380D924CFF2
:1000F600B41A00EF5004C2E5D204020271D20180A4
:10010600C6D20080C0D20280BCD2D580BAD20580C9
:10011600B47F201200612002077401B5090040F186
:10012600120026FF120061020099D208D2068095BD
:10013600120026FB120026FA120026F94A4B700618
:1001460079427A037BFF20022EE509602A7E008E23
:100156008275830012040260060EEE650A70F0C214
:10016600D5EBC0E0EAC0E0E9C0E0EE1202B8D0E0AC
:10017600F9D0E0FAD0E0FB120381FF60AAEBC0E001
:10018600EAC0E0E9C0E0120061D0E02401F9D0E065
:100196003400FAD0E0FBE50A0460DCD50AD9808792
:1001A6007BFF7A0279B4D202809C791080027908AA
:1001B600C206C2088008D2D5790A8004790AC2D557
:1001C600E50A047002F50AE4FAFDFEFF120026FCB9
:1001D6007B08200113120026FD7B1030000A120056
:1001E60026FE120026FF7B20EC3382D592D55013D3
:1001F600C3E43000069FFFE49EFEE42001039DFD5C
:10020600E49CFCE4CBF8C201EC700CCFCECDCCE87C
:1002160024F8F870F38017C3EF33FFEE33FEED33A7
:10022600FDEC33FCEB33FB994002FB0FD8E9EB30D6
:100236000105F8D0E0C448B201C0E00AEC4D4E4FCB
:1002460078207B0070C2EAB50A0040BCC0E012020A
:10025600BAD0F0D0E0200104C4C0E0C4B201C0F0BE
:1002660012004AD0F0D5F0EB02009912045A01367A
:100276005301B05801074C01034201B44F01BC447D
:1002860001BC49011C4301C25501A64601A6450110
:01029600A6C1
:1002970047036250010B2D010F2E01322B0113234F
:1002A700013020034B2A00CB480000012A3F3F3F83
:1002B70000790AA2D5200314300509B910020404F5
:1002C700B9080104A2D52006025001042002689251
:1002D70002B509005034C0E07F203003197F30A2F7
:1002E7000272067205500F120311C202C206C2053E
:1002F700C2087F30800F300503E9C0E0120061308B
:100307000503D0E0F9D0E0B509CC3005177F30B947
:10031700100C1200617F583004077F788003B908FA
:10032700031200613002057F2D0200617F20200843
:10033700F87F2B2006F322920280CF286E756C6C13
:100347002900D2011200263001F8C201780930D500
:100357000108F60200CB2D5043495812002624030A
:10036700B405004001E490035D93120052743A1201
:0A0377000052D2037509040201B020
:10040200BB010CE58229F582E5833AF583E02250AF
:1004120006E92582F8E622BBFE06E92582F8E222F9
:0D042200E58229F582E5833AF583E4932213
:10042F00BB010689828A83F0225002F722BBFE01AC
:02043F00F322A6
:10044100FAE2FB0808E2F925F0F218E2CA3AF222D0
:09045100EBF208EAF208E9F222DC
:10045A00D083D082F8E4937012740193700DA3A331
:10046A0093F8740193F5828883E473740293686045
:06047A00EFA3A3A380DF45
:00000001FF
