:1006CD00202564200000C1814001C0804101C0800F
:1006DD004100C1814001C0804100C1814000C18104
:1006ED004001C0804101C0804100C1814000C181F5
:1006FD004001C0804100C1814001C0804101C080E6
:10070D004100C1814001C0804100C1814000C181D3
:10071D004001C0804100C1814001C0804101C080C5
:10072D004100C1814000C1814001C0804101C080B4
:10073D004100C1814001C0804100C1814000C181A3
:10074D004001C0804101C0804100C1814000C18194
:10075D004001C0804100C1814001C0804101C08085
:10076D004100C1814000C1814001C0804101C08074
:10077D004100C1814001C0804100C1814000C18163
:10078D004001C0804100C1814001C0804101C08055
:10079D004100C1814001C0804100C1814000C18143
:1007AD004001C0804101C0804100C1814000C18134
:1007BD004001C0804100C1814001C0804101C08025
:1007CD004100C1814000C0C101C30302C2C606077A
:1007DD00C705C5C404CC0C0DCD0FCFCE0E0ACACBA8
:1007ED000BC90908C8D81819D91BDBDA1A1EDEDFA8
:1007FD001FDD1D1CDC14D4D515D71716D6D2121338
:10080D00D311D1D010F03031F133F3F23236F6F797
:10081D0037F53534F43CFCFD3DFF3F3EFEFA3A3BE7
:10082D00FB39F9F83828E8E929EB2B2AEAEE2E2FC7
:10083D00EF2DEDEC2CE42425E527E7E62622E2E377
:10084D0023E12120E0A06061A163A3A26266A6A7B7
:10085D0067A56564A46CACAD6DAF6F6EAEAA6A6B27
:10086D00AB69A9A86878B8B979BB7B7ABABE7E7F27
:10087D00BF7DBDBC7CB47475B577B7B67672B2B3B7
:10088D0073B17170B05090915193535292965657D7
:10089D0097559594549C5C5D9D5F9F9E5E5A9A9B67
:1008AD005B99595898884849894B8B8A4A4E8E8F47
:1008BD004F8D4D4C8C4484854587474686824243F7
:1008CD008341818040233445566778899AABBCCDEE
:1008DD00DEEF3445566778899AABBCCDDEEFF04537
:1008ED00566778899AABBCCDDEEFF00156677889F3
:1008FD009AABBCCDDEEFF001126778899AABBCCD17
:10090D00DEEFF001122378899AABBCCDDEEFF0015A
:10091D00122334899AABBCCDDEEFF001122334459E
:10092D009AABBCCDDEEFF0011223344556ABBCCDF6
:10093D00DEEFF001122334455667BCCDDEEFF0013A
:10094D0012233445566778CDDEEFF001122334457E
:10095D0056677889DEEFF0011223344556677889A2
:10096D009AEFF00112233445566778899AABF0015E
:10097D0012233445566778899AABBC01122334454E
:10098D00566778899AABBCCD122334455667788962
:10099D009AABBCCDDE0112233445566778899AABEC
:0509AD00BCCDDEEFF0FF
:100B1E0060D901D7014600000068D0000000000037
:100B2E0000000000000000000000000000000000B7
:100B3E0000000000000000000000000000000000A7
:100B4E000000000000000000000000000000000097
:100B5E000000000000000000000000000000000087
:100B6E000000000000000000000000000000000077
:100B7E000000000000000000000000000000000067
:100B8E000000000000000000000000000000000057
:100B9E000000000000000000000000000000000047
:100BAE000000000000000000000000000000000037
:100BBE000000000000000000000000000000000027
:100BCE000000000000000000000000000000000017
:100BDE000000000000000000000000000000000007
:0D0BEE0000000000000000000000000000FA
:1010EB00759850758920758DFD758BFDD28EC2ACB0
:0310FB00D2AF224F
:061138001210EB02038B14
:10038B00120F7F7F0112104B7F01120EF1900000B4
:10039B00EEF0A3EFF07F0212104B7F02120EF190E2
:1003AB000002EEF0A3EFF0E49002B4F0A3F0D2B6AB
:1003BB00C2B7C2B57F01120EF1900000EEF0A3EFB1
:1003CB00F07F02120EF1900002EEF0A3EFF07FC46B
:1003DB007E0912102DC2B6D2B7D2B57FC47E0912D8
:1003EB00102D9002B5E004F070069002B4E004F01A
:1003FB00C39002B5E094059002B4E0940040AFC204
:10040B00B6D2B7C2B5E49002B4F0A3F09002B2F04A
:10041B00A3F0E49002B0F0A3F09002B0E0FEA3E0F2
:10042B00FFC3940DEE940040030204F6A3E0FCA37B
:10043B00E0FD9008D275F00D120A8DEC75F00DA44D
:10044B002583F583E5822FF582E5833EF583E493DF
:10045B00F58074A22DF58274093CF583E493F5A025
:10046B007F587E0212102D7F01120EF1900000EECC
:10047B00F0A3EFF07F02120EF1900002EEF0A3EF6B
:10048B00F09002B4E0FEA3E0FFC39468EE940090FA
:10049B000000E0FCA3E0FD5010EF25E0FFEE33FE83
:1004AB0074062FF582740080149002B5E025E0FFEE
:1004BB009002B4E033FE74062FF58274003EF58390
:1004CB00ECF0A3EDF07F647E0012102D9002B5E0EE
:1004DB0004F070069002B4E004F09002B1E004F076
:1004EB0070069002B0E004F00204249002B3E00422
:1004FB00F070069002B2E004F0C39002B3E09410E7
:10050B009002B2E09400500302041DD2B6C2B7C2EF
:10051B00B5E49002B4F0A3F09002B4E0FEA3E0FFC8
:10052B00C39468EE94005055EF25E0FDEE33FC7458
:10053B00062DF58274003CF583E0FF74DE2DF58209
:10054B0074013CF583EFF09002B5E025E0FF9002DB
:10055B00B4E033FE74062FF58274003EF583A3E0FE
:10056B00FD74DF2FF58274013EF583EDF09002B53B
:10057B00E004F070A39002B4E004F0809B120BFC3B
:10058B00900004EEF0A3EFF0900004E0FCA3E0FD7C
:10059B00EC9002AFF0ED9002AEF0E49002B4F0A359
:1005AB00F09002B4E0FEA3E0FFC394D9EE940050A8
:1005BB002274D72FF58274013EF583E0F5993099BB
:1005CB00FDC2999002B5E004F070D69002B4E0043D
:1005DB00F080CE7F307E7512102DC2B6D2B7C2B569
:1005EB007F987E3A12102DD2B69001DA7468F0E43F
:1005FB009002B4F0A3F09002B4E0FEA3E0FFC3942A
:10060B0068EE94005055EF25E0FDEE33FC74D62DCB
:10061B00F58274003CF583E0FF74DE2DF5827401E6
:10062B003CF583EFF09002B5E025E0FF9002B4E0DB
:10063B0033FE74D62FF58274003EF583A3E0FD7470
:10064B00DF2FF58274013EF583EDF09002B5E004E7
:10065B00F070A39002B4E004F0809B120BFC9000AE
:10066B0004EEF0A3EFF0900004E0FCA3E0FDEC90AF
:10067B0002AFF0ED9002AEF0E49002B4F0A3F09074
:10068B0002B4E0FEA3E0FFC394D9EE9400502274B1
:10069B00D72FF58274013EF583E0F5993099FDC2B1
:1006AB00999002B5E004F070D69002B4E004F080AB
:1006BB00CED2B6C2B7D2B57F607EEA12102DC2B6CB
:0206CB0080FEAF
:0A0BFC007B017A0179D77DD77C00D8
:100C06009001A6EBF0A3EAF0A3E9F0A3ECF0A3EDC4
:010C1600F0ED
:100C1700A3E4F0A374FFF0A3E4F0A374FFF0900142
:100C2700A974FFF5F01209CB45F060539001A6E0D7
:100C3700FBA3E475F0011209CBA9F0FA1209B2FF80
:100C47009001ABE0FEA3E06FFFE4FCFD9001AF1263
:100C57000A509001AFA3A3A3E0FB9006D293FD90A7
:100C670001ADE0FFA3E06D9001ABCFF0A3EFF0EB98
:100C77009007D293FF9001ADE4F0A3EFF0809F902F
:0D0C870001AEE0FE9001ABE04EFEA3E0FFE9
:010C9400223D
:0B0E5D009002C2EBF0A3EAF0A3E9F062
:100E6800E4A3F09002C5E0FFC3946850339002C237
:100E7800E0FBA3E0FAA3E0F975F002EFA4F58285A0
:100E8800F0831209E1FF9001B1E5F0F0A3EFF07BE8
:100E9800FF7A0679CD1200919002C5E004F080C374
:010EA8002227
:03113E000210D4C8
:011144002288
:10102D00EF1FAA0670011E4A6013E4FCFDC3ED9488
:0D103D004BEC940050EA0DBD00010C80F05A
:01104A002283
:0300230002114582
:011145003277
:081118008F993099FDC2992264
:071120003098FDAF99C29861
:0111270022A5
:100FE1009002CEEBF0A3EAF0A3E9F0AF051DEF60AC
:100FF100199002CEE0FBA3E475F0011209CBA9F030
:0B100100FA1209B2FF12111880E12260
:1010D400759850758920758840758DFA758BFA75E9
:0710E4008780C298C2992227
:0C110C0041542B43474154543F0D0A004E
:100F7F007F0A7E0012102D1210877F057E0012103F
:100F8F002D1210A27F057E0012102D7F2012112826
:100F9F007F081211287F0112104B7F057E0002106F
:010FAF002D14
:011146002286
:10108700D2917F017E0012102DC2917F027E001245
:0B109700102DD2917F017E0002102D71
:1010A200C2907FFF120FC17FFF120FC17FFF120F8D
:0910B200C17FFF120FC1D2902290
:100FB0009002C6E0FCA3E0FDA3E0FEA3E0FF120A5E
:010FC0002A06
:100FC100E4FEEF30E704D2928002C292C293EF2591
:0F0FD100E0FF121146D2931211460EEEB408E360
:010FE00022EE
:100EA9009002CA120A509002CAE0FCA3E0FDA3E036
:100EB900FEA3E0FF7808120A3D9002CA120A509078
:0D0EC90002CAE0F8A3E0F9A3E0FAA3E0FB01
:100ED600E4FFFEC293121146EF25E0FF3094010FA6
:0A0EE600D2931211460EEEB408E993
:010EF00022DF
:08112800C290120FC1D2902207
:100003009002C6120A50C2907810120FB0780812EC
:100013000FB09002C6A3A3A3E0FF120FC1D2902298
:07113000C290120ED6D2900E
:011137002295
:1010BB00C290120ED6AD07ED7D00FC120ED6ED2FB1
:0810CB00FDE43CD290FEAF05EC
:0110D30022FA
:100F3900C290120ED6E4FCFDFE120EA9E4FCFDFEE1
:100F4900EB2FFFEE3AFEED39FDEC38FC120EA9E469
:100F5900FCFDFEEB2FFFEE3AFEED39FDEC38FC907F
:100F690002CA120A50D2909002CAE0FCA3E0FDA383
:050F7900E0FEA3E0FF13
:010F7E002250
:030D210012112884
:100D24009001AA120A5C00000000E47F407E1FFDCF
:100D3400FC9001AAE0F8A3E0F9A3E0FAA3E0FBC366
:100D4400120A1950243095219001AAE0FCA3E0FD79
:100D5400A3E0FEA3E02401FFE43EFEE43DFDE43C09
:100D6400FC9001AA120A5080C1E47F407E1FFDFC62
:100D74009001AAE0F8A3E0F9A3E0FAA3E0FBC31210
:100D84000A1940137BFF7A11790C1200911210A2F8
:070D94007F057E0012102D07
:010D9B002235
:100E1000EF24F0601624F0601224C06016146013F2
:100E200024F1600F14600C247170319002BB7408BF
:100E3000F080069002BB7418F01211289002BBE0FB
:100E40009002B7B40808A3A3A3E0FF021128E0FCB6
:0C0E5000A3E0FDA3E0FEA3E0FF120003FE
:010E5C002273
:050D9C009002BCEFF025
:100DA10024F0601624F0601224C06016146013242D
:100DB100F1600F14600C247170109002BD7408F082
:100DC100800F9002BD7418F0800774FFFFFEFDFCD8
:100DD100229002BCE04408FF121128A3E0FBB410EA
:100DE100091210BBE4FCFDA38013EBB40809121136
:100DF10030E4FCFDFE8003120F399002BE120A504E
:0E0E01009002BEE0FCA3E0FDA3E0FEA3E0FF34
:010E0F0022C0
:10104B009001A6EFF0BF01047F1080099001A6E08C
:0E105B00B4020A7F111211287F46120D2122C5
:101069009002D1EFF0BF01047F1080099002D1E016
:0E107900B4020A7F111211287F86120D212267
:10100C009002D2EFF0BF01047F1080099002D2E071
:10101C00B4020D7F111211287FC6121128120D2453
:01102C0022A1
:050EF1009001A6EFF0E6
:100EF600E49001A8F0A3F09001A7F0120D24900150
:100F0600A6E0FDB401047F388006EDB402057F3902
:100F16001211281210BB9001A8EEF0A3EFF0900179
:100F2600A7E004F0E0C3940240D19001A8E0FEA33C
:020F3600E0FFDA
:010F38002296
:0E10FE009001D6EFF01211189001D6E0FF22FB
:0311410002112078
:03000000020C955A
:0C0C9500787FE4F6D8FD758121020CDCAC
:1009B200BB010689828A83E0225002E722BBFE0243
:0909C200E32289828A83E4932276
:1009CB00A3F8E0C5F025F0F0E582158270021583DF
:0609DB00E0C838F0E8223C
:1009E100BB0110E58229F582E5833AF583E0F5F054
:1009F100A3E0225009E92582F886F008E622BBFE31
:100A01000AE92582F8E2F5F008E222E5832AF58376
:080A1100E993F5F0A3E993223B
:100A1900EB9FF5F0EA9E42F0E99D42F0E89C45F033
:010A290022AA
:100A2A00E8600FECC313FCED13FDEE13FEEF13FFAA
:030A3A00D8F122CE
:100A3D00E8600FEFC333FFEE33FEED33FDEC33FC17
:030A4D00D8F122BB
:0C0A5000ECF0A3EDF0A3EEF0A3EFF02219
:100A5C00A8828583F0D083D082120A73120A731293
:100A6C000A73120A73E473E493A3C583C5F0C583B8
:100A7C00C8C582C8F0A3C583C5F0C583C8C582C8E4
:010A8C002247
:0C0A8D00A42582F582E5F03583F5832274
:10002600E50824B1F582E43401F583E00508229061
:1000360001AE3007039001B1E475F001120AD8024F
:1000460009B22000E97F2ED2008018EF540F2490C9
:10005600D43440D4FF30040BEF24BFB41A0050034D
:100066002461FFE50960021509050CE50C7002051F
:100076000B30070E9001AEE475F001120AD8EF02BC
:100086000AC60210FE7403D2078003E4C207F5080D
:100096009001AE120AEFE4F509F50BF50CE50960DF
:1000A600077F2012006980F5750AFFC201C200C2EF
:1000B60002C203C205C206C208120035FF700D3027
:1000C60007057F0012007AAF0CAE0B22B4255FC283
:1000D600D5C204120035FF24D0B40A00501A75F0B8
:1000E6000A780930D50508B6FF0106C6A426F6200B
:1000F600D5047002D20380D924CFB41A00EF50047D
:10010600C2E5D20402027BD20180C6D20080C0D2F0
:100116000280BCD2D580BAD20580B47F2012006995
:100126002002077401B5090040F1120026FF1200F3
:10013600690200A3D208D2068095120026FB12009F
:1001460026FA120026F94A4B7006794C7A037BFF91
:1001560020022EE509602A7E008E82758300120A2F
:100166009960060EEE650A70F0C2D5EBC0E0EAC0F3
:10017600E0E9C0E0EE1202C2D0E0F9D0E0FAD0E049
:10018600FB1209B2FF60AAEBC0E0EAC0E0E9C0E0FA
:10019600120069D0E02401F9D0E03400FAD0E0FB87
:1001A600E50A0460DCD50AD980877BFF7A0279BE2E
:1001B600D202809C791080027908C206C2088008A3
:1001C600D2D5790A8004790AC2D5E50A047002F507
:1001D6000AE4FAFDFEFF120026FC7B08200113123A
:1001E6000026FD7B1030000A120026FE120026FFB4
:1001F6007B20EC3382D592D55013C3E43000069FA2
:10020600FFE49EFEE42001039DFDE49CFCE4CBF8A4
:10021600C201EC700CCFCECDCCE824F8F870F38098
:1002260017C3EF33FFEE33FEED33FDEC33FCEB3358
:10023600FB994002FB0FD8E9EB300105F8D0E0C48A
:1002460048B201C0E00AEC4D4E4F78207B0070C2E8
:10025600EAB50A0040BCC0E01202C4D0F0D0E020EB
:100266000104C4C0E0C4B201C0F0120052D0F0D5FF
:10027600F0EB0200A3120AF801405301BA5801112B
:100286004C010D4201BE4F01C64401C64901264339
:0802960001CC5501B04601B096
:10029E004501B047036C5001152D01192E013C2B61
:1002AE00011D23013A2003552A00D54800000134D0
:1002BE003F3F3F00790AA2D5200314300509B9103B
:1002CE00020404B9080104A2D5200602500104203C
:1002DE0002689202B509005034C0E07F2030031945
:1002EE007F30A20272067205500F12031BC202C2A9
:1002FE0006C205C2087F30800F300503E9C0E01248
:10030E000069300503D0E0F9D0E0B509CC3005170F
:10031E007F30B9100C1200697F583004077F788047
:10032E0003B908031200693002057F2D0200697FB0
:10033E00202008F87F2B2006F322920280CF286E11
:10034E00756C6C2900D2011200263001F8C20178BA
:10035E000930D50108F60200D52D50434958120038
:10036E00262403B405004001E49003679312005A5B
:0D037E00743A12005AD2037509040201BA44
:100CA100021138E493A3F8E493A34003F68001F220
:100CB10008DFF48029E493A3F85407240CC8C33354
:100CC100C4540F4420C8834004F456800146F6DF23
:100CD100E4800B0102040810204080900B1EE47E8A
:100CE100019360BCA3FF543F30E509541FFEE49318
:100CF100A360010ECF54C025E060A840B8E493A3DF
:100D0100FAE493A3F8E493A3C8C582C8CAC583CA09
:100D1100F0A3C8C582C8CAC583CADFE9DEE780BEC1
:010BFB0000F9
:100A9900BB010CE58229F582E5833AF583E0225012
:100AA90006E92582F8E622BBFE06E92582F8E2225C
:0D0AB900E58229F582E5833AF583E4932276
:100AC600BB010689828A83F0225002F722BBFE010F
:020AD600F32209
:100AD800F8E0FBA3A3E0F925F0F0E58215827002A7
:070AE8001583E0FA38F0224B
:090AEF00EBF0A3EAF0A3E9F02208
:100AF800D083D082F8E4937012740193700DA3A38D
:100B080093F8740193F5828883E4737402936860A0
:060B1800EFA3A3A380DFA0
:00000001FF
